{
  "contractName": "Faccount",
  "abi": [
    {
      "constant": true,
      "inputs": [
        {
          "name": "",
          "type": "uint256"
        }
      ],
      "name": "farmerAccts",
      "outputs": [
        {
          "name": "",
          "type": "uint256"
        }
      ],
      "payable": false,
      "stateMutability": "view",
      "type": "function",
      "signature": "0xe51ea1c0"
    },
    {
      "inputs": [],
      "payable": false,
      "stateMutability": "nonpayable",
      "type": "constructor",
      "signature": "constructor"
    },
    {
      "constant": false,
      "inputs": [
        {
          "name": "_fm_id",
          "type": "uint256"
        },
        {
          "name": "_fName",
          "type": "string"
        },
        {
          "name": "_lName",
          "type": "string"
        },
        {
          "name": "_doc1_hash",
          "type": "string"
        },
        {
          "name": "_doc2_hash",
          "type": "string"
        },
        {
          "name": "_doc3_hash",
          "type": "string"
        },
        {
          "name": "_doc4_hash",
          "type": "string"
        }
      ],
      "name": "setFarmer",
      "outputs": [],
      "payable": false,
      "stateMutability": "nonpayable",
      "type": "function",
      "signature": "0x8403aef7"
    },
    {
      "constant": true,
      "inputs": [],
      "name": "getFarmer",
      "outputs": [
        {
          "name": "",
          "type": "uint256[]"
        }
      ],
      "payable": false,
      "stateMutability": "view",
      "type": "function",
      "signature": "0x2388ec4c"
    },
    {
      "constant": true,
      "inputs": [
        {
          "name": "_fm_id",
          "type": "uint256"
        }
      ],
      "name": "getFarmer",
      "outputs": [
        {
          "name": "",
          "type": "uint256"
        },
        {
          "name": "",
          "type": "string"
        },
        {
          "name": "",
          "type": "string"
        },
        {
          "name": "",
          "type": "string"
        },
        {
          "name": "",
          "type": "string"
        },
        {
          "name": "",
          "type": "string"
        },
        {
          "name": "",
          "type": "string"
        }
      ],
      "payable": false,
      "stateMutability": "view",
      "type": "function",
      "signature": "0xad0caa76"
    },
    {
      "constant": true,
      "inputs": [],
      "name": "countFarmer",
      "outputs": [
        {
          "name": "",
          "type": "uint256"
        }
      ],
      "payable": false,
      "stateMutability": "view",
      "type": "function",
      "signature": "0x0f4b6d57"
    }
  ],
  "bytecode": "0x608060405234801561001057600080fd5b506040805190810160405280600181526020017f20000000000000000000000000000000000000000000000000000000000000008152506000908051906020019061005c929190610062565b50610107565b828054600181600116156101000203166002900490600052602060002090601f016020900481019282601f106100a357805160ff19168380011785556100d1565b828001600101855582156100d1579182015b828111156100d05782518255916020019190600101906100b5565b5b5090506100de91906100e2565b5090565b61010491905b808211156101005760008160009055506001016100e8565b5090565b90565b610ea3806101166000396000f3fe60806040526004361061006d576000357c0100000000000000000000000000000000000000000000000000000000900463ffffffff1680630f4b6d57146100725780632388ec4c1461009d5780638403aef714610109578063ad0caa76146104ce578063e51ea1c0146107a5575b600080fd5b34801561007e57600080fd5b506100876107f4565b6040518082815260200191505060405180910390f35b3480156100a957600080fd5b506100b2610801565b6040518080602001828103825283818151815260200191508051906020019060200280838360005b838110156100f55780820151818401526020810190506100da565b505050509050019250505060405180910390f35b34801561011557600080fd5b506104cc600480360360e081101561012c57600080fd5b81019080803590602001909291908035906020019064010000000081111561015357600080fd5b82018360208201111561016557600080fd5b8035906020019184600183028401116401000000008311171561018757600080fd5b91908080601f016020809104026020016040519081016040528093929190818152602001838380828437600081840152601f19601f820116905080830192505050505050509192919290803590602001906401000000008111156101ea57600080fd5b8201836020820111156101fc57600080fd5b8035906020019184600183028401116401000000008311171561021e57600080fd5b91908080601f016020809104026020016040519081016040528093929190818152602001838380828437600081840152601f19601f8201169050808301925050505050505091929192908035906020019064010000000081111561028157600080fd5b82018360208201111561029357600080fd5b803590602001918460018302840111640100000000831117156102b557600080fd5b91908080601f016020809104026020016040519081016040528093929190818152602001838380828437600081840152601f19601f8201169050808301925050505050505091929192908035906020019064010000000081111561031857600080fd5b82018360208201111561032a57600080fd5b8035906020019184600183028401116401000000008311171561034c57600080fd5b91908080601f016020809104026020016040519081016040528093929190818152602001838380828437600081840152601f19601f820116905080830192505050505050509192919290803590602001906401000000008111156103af57600080fd5b8201836020820111156103c157600080fd5b803590602001918460018302840111640100000000831117156103e357600080fd5b91908080601f016020809104026020016040519081016040528093929190818152602001838380828437600081840152601f19601f8201169050808301925050505050505091929192908035906020019064010000000081111561044657600080fd5b82018360208201111561045857600080fd5b8035906020019184600183028401116401000000008311171561047a57600080fd5b91908080601f016020809104026020016040519081016040528093929190818152602001838380828437600081840152601f19601f820116905080830192505050505050509192919290505050610859565b005b3480156104da57600080fd5b50610507600480360360208110156104f157600080fd5b8101908080359060200190929190505050610948565b6040518088815260200180602001806020018060200180602001806020018060200187810387528d818151815260200191508051906020019080838360005b83811015610561578082015181840152602081019050610546565b50505050905090810190601f16801561058e5780820380516001836020036101000a031916815260200191505b5087810386528c818151815260200191508051906020019080838360005b838110156105c75780820151818401526020810190506105ac565b50505050905090810190601f1680156105f45780820380516001836020036101000a031916815260200191505b5087810385528b818151815260200191508051906020019080838360005b8381101561062d578082015181840152602081019050610612565b50505050905090810190601f16801561065a5780820380516001836020036101000a031916815260200191505b5087810384528a818151815260200191508051906020019080838360005b83811015610693578082015181840152602081019050610678565b50505050905090810190601f1680156106c05780820380516001836020036101000a031916815260200191505b50878103835289818151815260200191508051906020019080838360005b838110156106f95780820151818401526020810190506106de565b50505050905090810190601f1680156107265780820380516001836020036101000a031916815260200191505b50878103825288818151815260200191508051906020019080838360005b8381101561075f578082015181840152602081019050610744565b50505050905090810190601f16801561078c5780820380516001836020036101000a031916815260200191505b509d505050505050505050505050505060405180910390f35b3480156107b157600080fd5b506107de600480360360208110156107c857600080fd5b8101908080359060200190929190505050610daf565b6040518082815260200191505060405180910390f35b6000600280549050905090565b6060600280548060200260200160405190810160405280929190818152602001828054801561084f57602002820191906000526020600020905b81548152602001906001019080831161083b575b5050505050905090565b600060016000898152602001908152602001600020905086816001019080519060200190610888929190610dd2565b50858160020190805190602001906108a1929190610dd2565b50878160000181905550848160030190805190602001906108c3929190610dd2565b50838160040190805190602001906108dc929190610dd2565b50828160050190805190602001906108f5929190610dd2565b508181600601908051906020019061090e929190610dd2565b5060016002899080600181540180825580915050906001820390600052602060002001600090919290919091505550505050505050505050565b60006060806060806060806001600089815260200190815260200160002060000154600160008a8152602001908152602001600020600101600160008b8152602001908152602001600020600201600160008c8152602001908152602001600020600301600160008d8152602001908152602001600020600401600160008e8152602001908152602001600020600501600160008f8152602001908152602001600020600601858054600181600116156101000203166002900480601f016020809104026020016040519081016040528092919081815260200182805460018160011615610100020316600290048015610a835780601f10610a5857610100808354040283529160200191610a83565b820191906000526020600020905b815481529060010190602001808311610a6657829003601f168201915b50505050509550848054600181600116156101000203166002900480601f016020809104026020016040519081016040528092919081815260200182805460018160011615610100020316600290048015610b1f5780601f10610af457610100808354040283529160200191610b1f565b820191906000526020600020905b815481529060010190602001808311610b0257829003601f168201915b50505050509450838054600181600116156101000203166002900480601f016020809104026020016040519081016040528092919081815260200182805460018160011615610100020316600290048015610bbb5780601f10610b9057610100808354040283529160200191610bbb565b820191906000526020600020905b815481529060010190602001808311610b9e57829003601f168201915b50505050509350828054600181600116156101000203166002900480601f016020809104026020016040519081016040528092919081815260200182805460018160011615610100020316600290048015610c575780601f10610c2c57610100808354040283529160200191610c57565b820191906000526020600020905b815481529060010190602001808311610c3a57829003601f168201915b50505050509250818054600181600116156101000203166002900480601f016020809104026020016040519081016040528092919081815260200182805460018160011615610100020316600290048015610cf35780601f10610cc857610100808354040283529160200191610cf3565b820191906000526020600020905b815481529060010190602001808311610cd657829003601f168201915b50505050509150808054600181600116156101000203166002900480601f016020809104026020016040519081016040528092919081815260200182805460018160011615610100020316600290048015610d8f5780601f10610d6457610100808354040283529160200191610d8f565b820191906000526020600020905b815481529060010190602001808311610d7257829003601f168201915b505050505090509650965096509650965096509650919395979092949650565b600281815481101515610dbe57fe5b906000526020600020016000915090505481565b828054600181600116156101000203166002900490600052602060002090601f016020900481019282601f10610e1357805160ff1916838001178555610e41565b82800160010185558215610e41579182015b82811115610e40578251825591602001919060010190610e25565b5b509050610e4e9190610e52565b5090565b610e7491905b80821115610e70576000816000905550600101610e58565b5090565b9056fea165627a7a72305820b3a9a62cdf827a29be76d8b418464b313f71728188b594deaf0b345c66abf4cb0029",
  "source": "pragma solidity ^0.5.0;\n\ncontract Faccount {\n    \n    struct facc {\n        uint fm_id;\n        string fName;\n        string lName;\n        string doc1_hash;\n        string doc2_hash;\n        string doc3_hash;\n        string doc4_hash;\n    }\n    string test;\n    mapping (uint => facc) farmer_accounts;\n    uint[] public farmerAccts;\n    \n    constructor() public{\n        test=\" \";\n    }\n    function setFarmer(uint _fm_id, string memory _fName, string memory _lName, string memory _doc1_hash, string memory _doc2_hash, string memory _doc3_hash, string memory _doc4_hash) public {\n        facc storage farmer = farmer_accounts[_fm_id];\n        \n        farmer.fName = _fName;\n        farmer.lName = _lName;\n        farmer.fm_id = _fm_id;\n        farmer.doc1_hash = _doc1_hash;\n        farmer.doc2_hash = _doc2_hash;\n        farmer.doc3_hash = _doc3_hash;\n        farmer.doc4_hash = _doc4_hash;\n        \n        \n        farmerAccts.push(_fm_id) -1;\n    }\n    \n    function getFarmer() view public returns(uint[] memory) {\n        return farmerAccts;\n    }\n    \n    function getFarmer(uint _fm_id) view public returns (uint, string memory, string memory, string memory, string memory, string memory, string memory) {\n        return (farmer_accounts[_fm_id].fm_id, farmer_accounts[_fm_id].fName, farmer_accounts[_fm_id].lName, farmer_accounts[_fm_id].doc1_hash, farmer_accounts[_fm_id].doc2_hash, farmer_accounts[_fm_id].doc3_hash, farmer_accounts[_fm_id].doc4_hash);\n    }\n    \n    function countFarmer() view public returns (uint) {\n        return farmerAccts.length;\n    }\n    \n}",
  "sourcePath": "/mnt/d/Desktop/Final/contracts/Faccount.sol",
  "compiler": {
    "name": "solc",
    "version": "0.5.0+commit.1d4f565a.Emscripten.clang"
  },
  "schemaVersion": "3.0.1",
  "updatedAt": "2020-04-13T08:40:18.875Z",
  "devdoc": {
    "methods": {}
  },
  "userdoc": {
    "methods": {}
  }
}